{
  "_format": "hh-sol-artifact-1",
  "contractName": "NFTZone",
  "sourceName": "contracts/NFTMaarket.sol",
  "abi": [
    {
      "inputs": [
        {
          "internalType": "address",
          "name": "initialOwner",
          "type": "address"
        }
      ],
      "stateMutability": "nonpayable",
      "type": "constructor"
    },
    {
      "inputs": [
        {
          "internalType": "address",
          "name": "sender",
          "type": "address"
        },
        {
          "internalType": "uint256",
          "name": "tokenId",
          "type": "uint256"
        },
        {
          "internalType": "address",
          "name": "owner",
          "type": "address"
        }
      ],
      "name": "ERC721IncorrectOwner",
      "type": "error"
    },
    {
      "inputs": [
        {
          "internalType": "address",
          "name": "operator",
          "type": "address"
        },
        {
          "internalType": "uint256",
          "name": "tokenId",
          "type": "uint256"
        }
      ],
      "name": "ERC721InsufficientApproval",
      "type": "error"
    },
    {
      "inputs": [
        {
          "internalType": "address",
          "name": "approver",
          "type": "address"
        }
      ],
      "name": "ERC721InvalidApprover",
      "type": "error"
    },
    {
      "inputs": [
        {
          "internalType": "address",
          "name": "operator",
          "type": "address"
        }
      ],
      "name": "ERC721InvalidOperator",
      "type": "error"
    },
    {
      "inputs": [
        {
          "internalType": "address",
          "name": "owner",
          "type": "address"
        }
      ],
      "name": "ERC721InvalidOwner",
      "type": "error"
    },
    {
      "inputs": [
        {
          "internalType": "address",
          "name": "receiver",
          "type": "address"
        }
      ],
      "name": "ERC721InvalidReceiver",
      "type": "error"
    },
    {
      "inputs": [
        {
          "internalType": "address",
          "name": "sender",
          "type": "address"
        }
      ],
      "name": "ERC721InvalidSender",
      "type": "error"
    },
    {
      "inputs": [
        {
          "internalType": "uint256",
          "name": "tokenId",
          "type": "uint256"
        }
      ],
      "name": "ERC721NonexistentToken",
      "type": "error"
    },
    {
      "inputs": [
        {
          "internalType": "address",
          "name": "owner",
          "type": "address"
        }
      ],
      "name": "OwnableInvalidOwner",
      "type": "error"
    },
    {
      "inputs": [
        {
          "internalType": "address",
          "name": "account",
          "type": "address"
        }
      ],
      "name": "OwnableUnauthorizedAccount",
      "type": "error"
    },
    {
      "anonymous": false,
      "inputs": [
        {
          "indexed": true,
          "internalType": "address",
          "name": "owner",
          "type": "address"
        },
        {
          "indexed": true,
          "internalType": "address",
          "name": "approved",
          "type": "address"
        },
        {
          "indexed": true,
          "internalType": "uint256",
          "name": "tokenId",
          "type": "uint256"
        }
      ],
      "name": "Approval",
      "type": "event"
    },
    {
      "anonymous": false,
      "inputs": [
        {
          "indexed": true,
          "internalType": "address",
          "name": "owner",
          "type": "address"
        },
        {
          "indexed": true,
          "internalType": "address",
          "name": "operator",
          "type": "address"
        },
        {
          "indexed": false,
          "internalType": "bool",
          "name": "approved",
          "type": "bool"
        }
      ],
      "name": "ApprovalForAll",
      "type": "event"
    },
    {
      "anonymous": false,
      "inputs": [
        {
          "indexed": false,
          "internalType": "uint256",
          "name": "_fromTokenId",
          "type": "uint256"
        },
        {
          "indexed": false,
          "internalType": "uint256",
          "name": "_toTokenId",
          "type": "uint256"
        }
      ],
      "name": "BatchMetadataUpdate",
      "type": "event"
    },
    {
      "anonymous": false,
      "inputs": [
        {
          "indexed": false,
          "internalType": "uint256",
          "name": "_tokenId",
          "type": "uint256"
        }
      ],
      "name": "MetadataUpdate",
      "type": "event"
    },
    {
      "anonymous": false,
      "inputs": [
        {
          "indexed": true,
          "internalType": "address",
          "name": "previousOwner",
          "type": "address"
        },
        {
          "indexed": true,
          "internalType": "address",
          "name": "newOwner",
          "type": "address"
        }
      ],
      "name": "OwnershipTransferred",
      "type": "event"
    },
    {
      "anonymous": false,
      "inputs": [
        {
          "indexed": true,
          "internalType": "address",
          "name": "from",
          "type": "address"
        },
        {
          "indexed": true,
          "internalType": "address",
          "name": "to",
          "type": "address"
        },
        {
          "indexed": true,
          "internalType": "uint256",
          "name": "tokenId",
          "type": "uint256"
        }
      ],
      "name": "Transfer",
      "type": "event"
    },
    {
      "inputs": [
        {
          "internalType": "string",
          "name": "_tokenURL",
          "type": "string"
        }
      ],
      "name": "MintNFT",
      "outputs": [
        {
          "internalType": "uint256",
          "name": "",
          "type": "uint256"
        }
      ],
      "stateMutability": "nonpayable",
      "type": "function"
    },
    {
      "inputs": [
        {
          "internalType": "address",
          "name": "to",
          "type": "address"
        },
        {
          "internalType": "uint256",
          "name": "tokenId",
          "type": "uint256"
        }
      ],
      "name": "approve",
      "outputs": [],
      "stateMutability": "nonpayable",
      "type": "function"
    },
    {
      "inputs": [
        {
          "internalType": "address",
          "name": "owner",
          "type": "address"
        }
      ],
      "name": "balanceOf",
      "outputs": [
        {
          "internalType": "uint256",
          "name": "",
          "type": "uint256"
        }
      ],
      "stateMutability": "view",
      "type": "function"
    },
    {
      "inputs": [
        {
          "internalType": "uint256",
          "name": "tokenId",
          "type": "uint256"
        }
      ],
      "name": "getApproved",
      "outputs": [
        {
          "internalType": "address",
          "name": "",
          "type": "address"
        }
      ],
      "stateMutability": "view",
      "type": "function"
    },
    {
      "inputs": [
        {
          "internalType": "uint256",
          "name": "_tokenId",
          "type": "uint256"
        }
      ],
      "name": "getNFTListing",
      "outputs": [
        {
          "internalType": "address",
          "name": "seller",
          "type": "address"
        },
        {
          "internalType": "uint256",
          "name": "price",
          "type": "uint256"
        },
        {
          "internalType": "bool",
          "name": "isListed",
          "type": "bool"
        }
      ],
      "stateMutability": "view",
      "type": "function"
    },
    {
      "inputs": [
        {
          "internalType": "address",
          "name": "owner",
          "type": "address"
        },
        {
          "internalType": "address",
          "name": "operator",
          "type": "address"
        }
      ],
      "name": "isApprovedForAll",
      "outputs": [
        {
          "internalType": "bool",
          "name": "",
          "type": "bool"
        }
      ],
      "stateMutability": "view",
      "type": "function"
    },
    {
      "inputs": [
        {
          "internalType": "uint256",
          "name": "_tokenId",
          "type": "uint256"
        },
        {
          "internalType": "uint256",
          "name": "_price",
          "type": "uint256"
        }
      ],
      "name": "listNFT",
      "outputs": [],
      "stateMutability": "nonpayable",
      "type": "function"
    },
    {
      "inputs": [],
      "name": "name",
      "outputs": [
        {
          "internalType": "string",
          "name": "",
          "type": "string"
        }
      ],
      "stateMutability": "view",
      "type": "function"
    },
    {
      "inputs": [],
      "name": "owner",
      "outputs": [
        {
          "internalType": "address",
          "name": "",
          "type": "address"
        }
      ],
      "stateMutability": "view",
      "type": "function"
    },
    {
      "inputs": [
        {
          "internalType": "uint256",
          "name": "tokenId",
          "type": "uint256"
        }
      ],
      "name": "ownerOf",
      "outputs": [
        {
          "internalType": "address",
          "name": "",
          "type": "address"
        }
      ],
      "stateMutability": "view",
      "type": "function"
    },
    {
      "inputs": [
        {
          "internalType": "uint256",
          "name": "_tokenId",
          "type": "uint256"
        }
      ],
      "name": "purchaseNFT",
      "outputs": [],
      "stateMutability": "payable",
      "type": "function"
    },
    {
      "inputs": [],
      "name": "renounceOwnership",
      "outputs": [],
      "stateMutability": "nonpayable",
      "type": "function"
    },
    {
      "inputs": [
        {
          "internalType": "address",
          "name": "from",
          "type": "address"
        },
        {
          "internalType": "address",
          "name": "to",
          "type": "address"
        },
        {
          "internalType": "uint256",
          "name": "tokenId",
          "type": "uint256"
        }
      ],
      "name": "safeTransferFrom",
      "outputs": [],
      "stateMutability": "nonpayable",
      "type": "function"
    },
    {
      "inputs": [
        {
          "internalType": "address",
          "name": "from",
          "type": "address"
        },
        {
          "internalType": "address",
          "name": "to",
          "type": "address"
        },
        {
          "internalType": "uint256",
          "name": "tokenId",
          "type": "uint256"
        },
        {
          "internalType": "bytes",
          "name": "data",
          "type": "bytes"
        }
      ],
      "name": "safeTransferFrom",
      "outputs": [],
      "stateMutability": "nonpayable",
      "type": "function"
    },
    {
      "inputs": [
        {
          "internalType": "address",
          "name": "operator",
          "type": "address"
        },
        {
          "internalType": "bool",
          "name": "approved",
          "type": "bool"
        }
      ],
      "name": "setApprovalForAll",
      "outputs": [],
      "stateMutability": "nonpayable",
      "type": "function"
    },
    {
      "inputs": [
        {
          "internalType": "bytes4",
          "name": "interfaceId",
          "type": "bytes4"
        }
      ],
      "name": "supportsInterface",
      "outputs": [
        {
          "internalType": "bool",
          "name": "",
          "type": "bool"
        }
      ],
      "stateMutability": "view",
      "type": "function"
    },
    {
      "inputs": [],
      "name": "symbol",
      "outputs": [
        {
          "internalType": "string",
          "name": "",
          "type": "string"
        }
      ],
      "stateMutability": "view",
      "type": "function"
    },
    {
      "inputs": [
        {
          "internalType": "uint256",
          "name": "tokenId",
          "type": "uint256"
        }
      ],
      "name": "tokenURI",
      "outputs": [
        {
          "internalType": "string",
          "name": "",
          "type": "string"
        }
      ],
      "stateMutability": "view",
      "type": "function"
    },
    {
      "inputs": [
        {
          "internalType": "address",
          "name": "from",
          "type": "address"
        },
        {
          "internalType": "address",
          "name": "to",
          "type": "address"
        },
        {
          "internalType": "uint256",
          "name": "tokenId",
          "type": "uint256"
        }
      ],
      "name": "transferFrom",
      "outputs": [],
      "stateMutability": "nonpayable",
      "type": "function"
    },
    {
      "inputs": [
        {
          "internalType": "address",
          "name": "newOwner",
          "type": "address"
        }
      ],
      "name": "transferOwnership",
      "outputs": [],
      "stateMutability": "nonpayable",
      "type": "function"
    }
  ],
  "bytecode": "0x608060405234801561001057600080fd5b5060405161339038038061339083398181016040528101906100329190610272565b806040518060400160405280600781526020017f4e46545a6f6e65000000000000000000000000000000000000000000000000008152506040518060400160405280600481526020017f4e46545a0000000000000000000000000000000000000000000000000000000081525081600090816100ae91906104ef565b5080600190816100be91906104ef565b505050600073ffffffffffffffffffffffffffffffffffffffff168173ffffffffffffffffffffffffffffffffffffffff16036101335760006040517f1e4fbdf700000000000000000000000000000000000000000000000000000000815260040161012a91906105d0565b60405180910390fd5b6101428161014960201b60201c565b50506105eb565b6000600760009054906101000a900473ffffffffffffffffffffffffffffffffffffffff16905081600760006101000a81548173ffffffffffffffffffffffffffffffffffffffff021916908373ffffffffffffffffffffffffffffffffffffffff1602179055508173ffffffffffffffffffffffffffffffffffffffff168173ffffffffffffffffffffffffffffffffffffffff167f8be0079c531659141344cd1fd0a4f28419497f9722a3daafe3b4186f6b6457e060405160405180910390a35050565b600080fd5b600073ffffffffffffffffffffffffffffffffffffffff82169050919050565b600061023f82610214565b9050919050565b61024f81610234565b811461025a57600080fd5b50565b60008151905061026c81610246565b92915050565b6000602082840312156102885761028761020f565b5b60006102968482850161025d565b91505092915050565b600081519050919050565b7f4e487b7100000000000000000000000000000000000000000000000000000000600052604160045260246000fd5b7f4e487b7100000000000000000000000000000000000000000000000000000000600052602260045260246000fd5b6000600282049050600182168061032057607f821691505b602082108103610333576103326102d9565b5b50919050565b60008190508160005260206000209050919050565b60006020601f8301049050919050565b600082821b905092915050565b60006008830261039b7fffffffffffffffffffffffffffffffffffffffffffffffffffffffffffffffff8261035e565b6103a5868361035e565b95508019841693508086168417925050509392505050565b6000819050919050565b6000819050919050565b60006103ec6103e76103e2846103bd565b6103c7565b6103bd565b9050919050565b6000819050919050565b610406836103d1565b61041a610412826103f3565b84845461036b565b825550505050565b600090565b61042f610422565b61043a8184846103fd565b505050565b5b8181101561045e57610453600082610427565b600181019050610440565b5050565b601f8211156104a35761047481610339565b61047d8461034e565b8101602085101561048c578190505b6104a06104988561034e565b83018261043f565b50505b505050565b600082821c905092915050565b60006104c6600019846008026104a8565b1980831691505092915050565b60006104df83836104b5565b9150826002028217905092915050565b6104f88261029f565b67ffffffffffffffff811115610511576105106102aa565b5b61051b8254610308565b610526828285610462565b600060209050601f8311600181146105595760008415610547578287015190505b61055185826104d3565b8655506105b9565b601f19841661056786610339565b60005b8281101561058f5784890151825560018201915060208501945060208101905061056a565b868310156105ac57848901516105a8601f8916826104b5565b8355505b6001600288020188555050505b505050505050565b6105ca81610234565b82525050565b60006020820190506105e560008301846105c1565b92915050565b612d96806105fa6000396000f3fe60806040526004361061011f5760003560e01c806370a08231116100a0578063a22cb46511610064578063a22cb465146103ec578063b88d4fde14610415578063c87b56dd1461043e578063e985e9c51461047b578063f2fde38b146104b85761011f565b806370a0823114610319578063715018a6146103565780638da5cb5b1461036d57806394383f141461039857806395d89b41146103c15761011f565b8063150bde03116100e7578063150bde0314610231578063172232f31461024d57806323b872dd1461028a57806342842e0e146102b35780636352211e146102dc5761011f565b806301ffc9a71461012457806306fdde0314610161578063081812fc1461018c578063095ea7b3146101c95780630ea59c4b146101f2575b600080fd5b34801561013057600080fd5b5061014b60048036038101906101469190611fee565b6104e1565b6040516101589190612036565b60405180910390f35b34801561016d57600080fd5b50610176610542565b60405161018391906120e1565b60405180910390f35b34801561019857600080fd5b506101b360048036038101906101ae9190612139565b6105d4565b6040516101c091906121a7565b60405180910390f35b3480156101d557600080fd5b506101f060048036038101906101eb91906121ee565b6105f0565b005b3480156101fe57600080fd5b5061021960048036038101906102149190612139565b610606565b6040516102289392919061223d565b60405180910390f35b61024b60048036038101906102469190612139565b6106ce565b005b34801561025957600080fd5b50610274600480360381019061026f91906123a9565b61085f565b60405161028191906123f2565b60405180910390f35b34801561029657600080fd5b506102b160048036038101906102ac919061240d565b6108a7565b005b3480156102bf57600080fd5b506102da60048036038101906102d5919061240d565b6109a9565b005b3480156102e857600080fd5b5061030360048036038101906102fe9190612139565b6109c9565b60405161031091906121a7565b60405180910390f35b34801561032557600080fd5b50610340600480360381019061033b9190612460565b6109db565b60405161034d91906123f2565b60405180910390f35b34801561036257600080fd5b5061036b610a95565b005b34801561037957600080fd5b50610382610aa9565b60405161038f91906121a7565b60405180910390f35b3480156103a457600080fd5b506103bf60048036038101906103ba919061248d565b610ad3565b005b3480156103cd57600080fd5b506103d6610c5b565b6040516103e391906120e1565b60405180910390f35b3480156103f857600080fd5b50610413600480360381019061040e91906124f9565b610ced565b005b34801561042157600080fd5b5061043c600480360381019061043791906125da565b610d03565b005b34801561044a57600080fd5b5061046560048036038101906104609190612139565b610d20565b60405161047291906120e1565b60405180910390f35b34801561048757600080fd5b506104a2600480360381019061049d919061265d565b610e33565b6040516104af9190612036565b60405180910390f35b3480156104c457600080fd5b506104df60048036038101906104da9190612460565b610ec7565b005b6000634906490660e01b7bffffffffffffffffffffffffffffffffffffffffffffffffffffffff1916827bffffffffffffffffffffffffffffffffffffffffffffffffffffffff1916148061053b575061053a82610f4d565b5b9050919050565b606060008054610551906126cc565b80601f016020809104026020016040519081016040528092919081815260200182805461057d906126cc565b80156105ca5780601f1061059f576101008083540402835291602001916105ca565b820191906000526020600020905b8154815290600101906020018083116105ad57829003601f168201915b5050505050905090565b60006105df8261102f565b506105e9826110b7565b9050919050565b61060282826105fd6110f4565b6110fc565b5050565b60008060008060086000868152602001908152602001600020604051806080016040529081600082015481526020016001820160009054906101000a900473ffffffffffffffffffffffffffffffffffffffff1673ffffffffffffffffffffffffffffffffffffffff1673ffffffffffffffffffffffffffffffffffffffff168152602001600282015481526020016003820160009054906101000a900460ff1615151515815250509050806020015181604001518260600151935093509350509193909250565b600060086000838152602001908152602001600020604051806080016040529081600082015481526020016001820160009054906101000a900473ffffffffffffffffffffffffffffffffffffffff1673ffffffffffffffffffffffffffffffffffffffff1673ffffffffffffffffffffffffffffffffffffffff168152602001600282015481526020016003820160009054906101000a900460ff161515151581525050905080606001516107b9576040517f08c379a00000000000000000000000000000000000000000000000000000000081526004016107b090612749565b60405180910390fd5b806040015134146107ff576040517f08c379a00000000000000000000000000000000000000000000000000000000081526004016107f6906127b5565b60405180910390fd5b806020015173ffffffffffffffffffffffffffffffffffffffff166108fc349081150290604051600060405180830381858888f19350505050158015610849573d6000803e3d6000fd5b5060008160600190151590811515815250505050565b600061086961110e565b6000600954905061087a3382611195565b610884818461128e565b6001600960008282546108979190612804565b9250508190555080915050919050565b600073ffffffffffffffffffffffffffffffffffffffff168273ffffffffffffffffffffffffffffffffffffffff16036109195760006040517f64a0ae9200000000000000000000000000000000000000000000000000000000815260040161091091906121a7565b60405180910390fd5b600061092d83836109286110f4565b6112ea565b90508373ffffffffffffffffffffffffffffffffffffffff168173ffffffffffffffffffffffffffffffffffffffff16146109a3578382826040517f64283d7b00000000000000000000000000000000000000000000000000000000815260040161099a93929190612838565b60405180910390fd5b50505050565b6109c483838360405180602001604052806000815250610d03565b505050565b60006109d48261102f565b9050919050565b60008073ffffffffffffffffffffffffffffffffffffffff168273ffffffffffffffffffffffffffffffffffffffff1603610a4e5760006040517f89c62b64000000000000000000000000000000000000000000000000000000008152600401610a4591906121a7565b60405180910390fd5b600360008373ffffffffffffffffffffffffffffffffffffffff1673ffffffffffffffffffffffffffffffffffffffff168152602001908152602001600020549050919050565b610a9d61110e565b610aa76000611504565b565b6000600760009054906101000a900473ffffffffffffffffffffffffffffffffffffffff16905090565b3373ffffffffffffffffffffffffffffffffffffffff16610af3836109c9565b73ffffffffffffffffffffffffffffffffffffffff1614610b49576040517f08c379a0000000000000000000000000000000000000000000000000000000008152600401610b40906128bb565b60405180910390fd5b60008111610b8c576040517f08c379a0000000000000000000000000000000000000000000000000000000008152600401610b8390612927565b60405180910390fd5b60405180608001604052808381526020013373ffffffffffffffffffffffffffffffffffffffff16815260200182815260200160011515815250600860008481526020019081526020016000206000820151816000015560208201518160010160006101000a81548173ffffffffffffffffffffffffffffffffffffffff021916908373ffffffffffffffffffffffffffffffffffffffff1602179055506040820151816002015560608201518160030160006101000a81548160ff0219169083151502179055509050505050565b606060018054610c6a906126cc565b80601f0160208091040260200160405190810160405280929190818152602001828054610c96906126cc565b8015610ce35780601f10610cb857610100808354040283529160200191610ce3565b820191906000526020600020905b815481529060010190602001808311610cc657829003601f168201915b5050505050905090565b610cff610cf86110f4565b83836115ca565b5050565b610d0e8484846108a7565b610d1a84848484611739565b50505050565b6060610d2b8261102f565b506000600660008481526020019081526020016000208054610d4c906126cc565b80601f0160208091040260200160405190810160405280929190818152602001828054610d78906126cc565b8015610dc55780601f10610d9a57610100808354040283529160200191610dc5565b820191906000526020600020905b815481529060010190602001808311610da857829003601f168201915b505050505090506000610dd66118f0565b90506000815103610deb578192505050610e2e565b600082511115610e20578082604051602001610e08929190612983565b60405160208183030381529060405292505050610e2e565b610e2984611907565b925050505b919050565b6000600560008473ffffffffffffffffffffffffffffffffffffffff1673ffffffffffffffffffffffffffffffffffffffff16815260200190815260200160002060008373ffffffffffffffffffffffffffffffffffffffff1673ffffffffffffffffffffffffffffffffffffffff16815260200190815260200160002060009054906101000a900460ff16905092915050565b610ecf61110e565b600073ffffffffffffffffffffffffffffffffffffffff168173ffffffffffffffffffffffffffffffffffffffff1603610f415760006040517f1e4fbdf7000000000000000000000000000000000000000000000000000000008152600401610f3891906121a7565b60405180910390fd5b610f4a81611504565b50565b60007f80ac58cd000000000000000000000000000000000000000000000000000000007bffffffffffffffffffffffffffffffffffffffffffffffffffffffff1916827bffffffffffffffffffffffffffffffffffffffffffffffffffffffff1916148061101857507f5b5e139f000000000000000000000000000000000000000000000000000000007bffffffffffffffffffffffffffffffffffffffffffffffffffffffff1916827bffffffffffffffffffffffffffffffffffffffffffffffffffffffff1916145b80611028575061102782611970565b5b9050919050565b60008061103b836119da565b9050600073ffffffffffffffffffffffffffffffffffffffff168173ffffffffffffffffffffffffffffffffffffffff16036110ae57826040517f7e2732890000000000000000000000000000000000000000000000000000000081526004016110a591906123f2565b60405180910390fd5b80915050919050565b60006004600083815260200190815260200160002060009054906101000a900473ffffffffffffffffffffffffffffffffffffffff169050919050565b600033905090565b6111098383836001611a17565b505050565b6111166110f4565b73ffffffffffffffffffffffffffffffffffffffff16611134610aa9565b73ffffffffffffffffffffffffffffffffffffffff1614611193576111576110f4565b6040517f118cdaa700000000000000000000000000000000000000000000000000000000815260040161118a91906121a7565b60405180910390fd5b565b600073ffffffffffffffffffffffffffffffffffffffff168273ffffffffffffffffffffffffffffffffffffffff16036112075760006040517f64a0ae920000000000000000000000000000000000000000000000000000000081526004016111fe91906121a7565b60405180910390fd5b6000611215838360006112ea565b9050600073ffffffffffffffffffffffffffffffffffffffff168173ffffffffffffffffffffffffffffffffffffffff16146112895760006040517f73c6ac6e00000000000000000000000000000000000000000000000000000000815260040161128091906121a7565b60405180910390fd5b505050565b806006600084815260200190815260200160002090816112ae9190612b53565b507ff8e1a15aba9398e019f0b49df1a4fde98ee17ae345cb5f6b5e2c27f5033e8ce7826040516112de91906123f2565b60405180910390a15050565b6000806112f6846119da565b9050600073ffffffffffffffffffffffffffffffffffffffff168373ffffffffffffffffffffffffffffffffffffffff161461133857611337818486611bdc565b5b600073ffffffffffffffffffffffffffffffffffffffff168173ffffffffffffffffffffffffffffffffffffffff16146113c95761137a600085600080611a17565b6001600360008373ffffffffffffffffffffffffffffffffffffffff1673ffffffffffffffffffffffffffffffffffffffff168152602001908152602001600020600082825403925050819055505b600073ffffffffffffffffffffffffffffffffffffffff168573ffffffffffffffffffffffffffffffffffffffff161461144c576001600360008773ffffffffffffffffffffffffffffffffffffffff1673ffffffffffffffffffffffffffffffffffffffff168152602001908152602001600020600082825401925050819055505b846002600086815260200190815260200160002060006101000a81548173ffffffffffffffffffffffffffffffffffffffff021916908373ffffffffffffffffffffffffffffffffffffffff160217905550838573ffffffffffffffffffffffffffffffffffffffff168273ffffffffffffffffffffffffffffffffffffffff167fddf252ad1be2c89b69c2b068fc378daa952ba7f163c4a11628f55a4df523b3ef60405160405180910390a4809150509392505050565b6000600760009054906101000a900473ffffffffffffffffffffffffffffffffffffffff16905081600760006101000a81548173ffffffffffffffffffffffffffffffffffffffff021916908373ffffffffffffffffffffffffffffffffffffffff1602179055508173ffffffffffffffffffffffffffffffffffffffff168173ffffffffffffffffffffffffffffffffffffffff167f8be0079c531659141344cd1fd0a4f28419497f9722a3daafe3b4186f6b6457e060405160405180910390a35050565b600073ffffffffffffffffffffffffffffffffffffffff168273ffffffffffffffffffffffffffffffffffffffff160361163b57816040517f5b08ba1800000000000000000000000000000000000000000000000000000000815260040161163291906121a7565b60405180910390fd5b80600560008573ffffffffffffffffffffffffffffffffffffffff1673ffffffffffffffffffffffffffffffffffffffff16815260200190815260200160002060008473ffffffffffffffffffffffffffffffffffffffff1673ffffffffffffffffffffffffffffffffffffffff16815260200190815260200160002060006101000a81548160ff0219169083151502179055508173ffffffffffffffffffffffffffffffffffffffff168373ffffffffffffffffffffffffffffffffffffffff167f17307eab39ab6107e8899845ad3d59bd9653f200f220920489ca2b5937696c318360405161172c9190612036565b60405180910390a3505050565b60008373ffffffffffffffffffffffffffffffffffffffff163b11156118ea578273ffffffffffffffffffffffffffffffffffffffff1663150b7a0261177d6110f4565b8685856040518563ffffffff1660e01b815260040161179f9493929190612c7a565b6020604051808303816000875af19250505080156117db57506040513d601f19601f820116820180604052508101906117d89190612cdb565b60015b61185f573d806000811461180b576040519150601f19603f3d011682016040523d82523d6000602084013e611810565b606091505b50600081510361185757836040517f64a0ae9200000000000000000000000000000000000000000000000000000000815260040161184e91906121a7565b60405180910390fd5b805181602001fd5b63150b7a0260e01b7bffffffffffffffffffffffffffffffffffffffffffffffffffffffff1916817bffffffffffffffffffffffffffffffffffffffffffffffffffffffff1916146118e857836040517f64a0ae920000000000000000000000000000000000000000000000000000000081526004016118df91906121a7565b60405180910390fd5b505b50505050565b606060405180602001604052806000815250905090565b60606119128261102f565b50600061191d6118f0565b9050600081511161193d5760405180602001604052806000815250611968565b8061194784611ca0565b604051602001611958929190612983565b6040516020818303038152906040525b915050919050565b60007f01ffc9a7000000000000000000000000000000000000000000000000000000007bffffffffffffffffffffffffffffffffffffffffffffffffffffffff1916827bffffffffffffffffffffffffffffffffffffffffffffffffffffffff1916149050919050565b60006002600083815260200190815260200160002060009054906101000a900473ffffffffffffffffffffffffffffffffffffffff169050919050565b8080611a505750600073ffffffffffffffffffffffffffffffffffffffff168273ffffffffffffffffffffffffffffffffffffffff1614155b15611b84576000611a608461102f565b9050600073ffffffffffffffffffffffffffffffffffffffff168373ffffffffffffffffffffffffffffffffffffffff1614158015611acb57508273ffffffffffffffffffffffffffffffffffffffff168173ffffffffffffffffffffffffffffffffffffffff1614155b8015611ade5750611adc8184610e33565b155b15611b2057826040517fa9fbf51f000000000000000000000000000000000000000000000000000000008152600401611b1791906121a7565b60405180910390fd5b8115611b8257838573ffffffffffffffffffffffffffffffffffffffff168273ffffffffffffffffffffffffffffffffffffffff167f8c5be1e5ebec7d5bd14f71427d1e84f3dd0314c0f7b2291e5b200ac8c7c3b92560405160405180910390a45b505b836004600085815260200190815260200160002060006101000a81548173ffffffffffffffffffffffffffffffffffffffff021916908373ffffffffffffffffffffffffffffffffffffffff16021790555050505050565b611be7838383611d6e565b611c9b57600073ffffffffffffffffffffffffffffffffffffffff168373ffffffffffffffffffffffffffffffffffffffff1603611c5c57806040517f7e273289000000000000000000000000000000000000000000000000000000008152600401611c5391906123f2565b60405180910390fd5b81816040517f177e802f000000000000000000000000000000000000000000000000000000008152600401611c92929190612d08565b60405180910390fd5b505050565b606060006001611caf84611e2f565b01905060008167ffffffffffffffff811115611cce57611ccd61227e565b5b6040519080825280601f01601f191660200182016040528015611d005781602001600182028036833780820191505090505b509050600082602001820190505b600115611d63578080600190039150507f3031323334353637383961626364656600000000000000000000000000000000600a86061a8153600a8581611d5757611d56612d31565b5b04945060008503611d0e575b819350505050919050565b60008073ffffffffffffffffffffffffffffffffffffffff168373ffffffffffffffffffffffffffffffffffffffff1614158015611e2657508273ffffffffffffffffffffffffffffffffffffffff168473ffffffffffffffffffffffffffffffffffffffff161480611de75750611de68484610e33565b5b80611e2557508273ffffffffffffffffffffffffffffffffffffffff16611e0d836110b7565b73ffffffffffffffffffffffffffffffffffffffff16145b5b90509392505050565b600080600090507a184f03e93ff9f4daa797ed6e38ed64bf6a1f0100000000000000008310611e8d577a184f03e93ff9f4daa797ed6e38ed64bf6a1f0100000000000000008381611e8357611e82612d31565b5b0492506040810190505b6d04ee2d6d415b85acef81000000008310611eca576d04ee2d6d415b85acef81000000008381611ec057611ebf612d31565b5b0492506020810190505b662386f26fc100008310611ef957662386f26fc100008381611eef57611eee612d31565b5b0492506010810190505b6305f5e1008310611f22576305f5e1008381611f1857611f17612d31565b5b0492506008810190505b6127108310611f47576127108381611f3d57611f3c612d31565b5b0492506004810190505b60648310611f6a5760648381611f6057611f5f612d31565b5b0492506002810190505b600a8310611f79576001810190505b80915050919050565b6000604051905090565b600080fd5b600080fd5b60007fffffffff0000000000000000000000000000000000000000000000000000000082169050919050565b611fcb81611f96565b8114611fd657600080fd5b50565b600081359050611fe881611fc2565b92915050565b60006020828403121561200457612003611f8c565b5b600061201284828501611fd9565b91505092915050565b60008115159050919050565b6120308161201b565b82525050565b600060208201905061204b6000830184612027565b92915050565b600081519050919050565b600082825260208201905092915050565b60005b8381101561208b578082015181840152602081019050612070565b60008484015250505050565b6000601f19601f8301169050919050565b60006120b382612051565b6120bd818561205c565b93506120cd81856020860161206d565b6120d681612097565b840191505092915050565b600060208201905081810360008301526120fb81846120a8565b905092915050565b6000819050919050565b61211681612103565b811461212157600080fd5b50565b6000813590506121338161210d565b92915050565b60006020828403121561214f5761214e611f8c565b5b600061215d84828501612124565b91505092915050565b600073ffffffffffffffffffffffffffffffffffffffff82169050919050565b600061219182612166565b9050919050565b6121a181612186565b82525050565b60006020820190506121bc6000830184612198565b92915050565b6121cb81612186565b81146121d657600080fd5b50565b6000813590506121e8816121c2565b92915050565b6000806040838503121561220557612204611f8c565b5b6000612213858286016121d9565b925050602061222485828601612124565b9150509250929050565b61223781612103565b82525050565b60006060820190506122526000830186612198565b61225f602083018561222e565b61226c6040830184612027565b949350505050565b600080fd5b600080fd5b7f4e487b7100000000000000000000000000000000000000000000000000000000600052604160045260246000fd5b6122b682612097565b810181811067ffffffffffffffff821117156122d5576122d461227e565b5b80604052505050565b60006122e8611f82565b90506122f482826122ad565b919050565b600067ffffffffffffffff8211156123145761231361227e565b5b61231d82612097565b9050602081019050919050565b82818337600083830152505050565b600061234c612347846122f9565b6122de565b90508281526020810184848401111561236857612367612279565b5b61237384828561232a565b509392505050565b600082601f8301126123905761238f612274565b5b81356123a0848260208601612339565b91505092915050565b6000602082840312156123bf576123be611f8c565b5b600082013567ffffffffffffffff8111156123dd576123dc611f91565b5b6123e98482850161237b565b91505092915050565b6000602082019050612407600083018461222e565b92915050565b60008060006060848603121561242657612425611f8c565b5b6000612434868287016121d9565b9350506020612445868287016121d9565b925050604061245686828701612124565b9150509250925092565b60006020828403121561247657612475611f8c565b5b6000612484848285016121d9565b91505092915050565b600080604083850312156124a4576124a3611f8c565b5b60006124b285828601612124565b92505060206124c385828601612124565b9150509250929050565b6124d68161201b565b81146124e157600080fd5b50565b6000813590506124f3816124cd565b92915050565b600080604083850312156125105761250f611f8c565b5b600061251e858286016121d9565b925050602061252f858286016124e4565b9150509250929050565b600067ffffffffffffffff8211156125545761255361227e565b5b61255d82612097565b9050602081019050919050565b600061257d61257884612539565b6122de565b90508281526020810184848401111561259957612598612279565b5b6125a484828561232a565b509392505050565b600082601f8301126125c1576125c0612274565b5b81356125d184826020860161256a565b91505092915050565b600080600080608085870312156125f4576125f3611f8c565b5b6000612602878288016121d9565b9450506020612613878288016121d9565b935050604061262487828801612124565b925050606085013567ffffffffffffffff81111561264557612644611f91565b5b612651878288016125ac565b91505092959194509250565b6000806040838503121561267457612673611f8c565b5b6000612682858286016121d9565b9250506020612693858286016121d9565b9150509250929050565b7f4e487b7100000000000000000000000000000000000000000000000000000000600052602260045260246000fd5b600060028204905060018216806126e457607f821691505b6020821081036126f7576126f661269d565b5b50919050565b7f4e4654206e6f7420666f722073616c6500000000000000000000000000000000600082015250565b600061273360108361205c565b915061273e826126fd565b602082019050919050565b6000602082019050818103600083015261276281612726565b9050919050565b7f436865636b2074686520707269636520616761696e0000000000000000000000600082015250565b600061279f60158361205c565b91506127aa82612769565b602082019050919050565b600060208201905081810360008301526127ce81612792565b9050919050565b7f4e487b7100000000000000000000000000000000000000000000000000000000600052601160045260246000fd5b600061280f82612103565b915061281a83612103565b9250828201905080821115612832576128316127d5565b5b92915050565b600060608201905061284d6000830186612198565b61285a602083018561222e565b6128676040830184612198565b949350505050565b7f4f6e6c79206f776e65722063616e206c69737400000000000000000000000000600082015250565b60006128a560138361205c565b91506128b08261286f565b602082019050919050565b600060208201905081810360008301526128d481612898565b9050919050565b7f5072696365206d7573742062652067726561746572207468616e207a65726f00600082015250565b6000612911601f8361205c565b915061291c826128db565b602082019050919050565b6000602082019050818103600083015261294081612904565b9050919050565b600081905092915050565b600061295d82612051565b6129678185612947565b935061297781856020860161206d565b80840191505092915050565b600061298f8285612952565b915061299b8284612952565b91508190509392505050565b60008190508160005260206000209050919050565b60006020601f8301049050919050565b600082821b905092915050565b600060088302612a097fffffffffffffffffffffffffffffffffffffffffffffffffffffffffffffffff826129cc565b612a1386836129cc565b95508019841693508086168417925050509392505050565b6000819050919050565b6000612a50612a4b612a4684612103565b612a2b565b612103565b9050919050565b6000819050919050565b612a6a83612a35565b612a7e612a7682612a57565b8484546129d9565b825550505050565b600090565b612a93612a86565b612a9e818484612a61565b505050565b5b81811015612ac257612ab7600082612a8b565b600181019050612aa4565b5050565b601f821115612b0757612ad8816129a7565b612ae1846129bc565b81016020851015612af0578190505b612b04612afc856129bc565b830182612aa3565b50505b505050565b600082821c905092915050565b6000612b2a60001984600802612b0c565b1980831691505092915050565b6000612b438383612b19565b9150826002028217905092915050565b612b5c82612051565b67ffffffffffffffff811115612b7557612b7461227e565b5b612b7f82546126cc565b612b8a828285612ac6565b600060209050601f831160018114612bbd5760008415612bab578287015190505b612bb58582612b37565b865550612c1d565b601f198416612bcb866129a7565b60005b82811015612bf357848901518255600182019150602085019450602081019050612bce565b86831015612c105784890151612c0c601f891682612b19565b8355505b6001600288020188555050505b505050505050565b600081519050919050565b600082825260208201905092915050565b6000612c4c82612c25565b612c568185612c30565b9350612c6681856020860161206d565b612c6f81612097565b840191505092915050565b6000608082019050612c8f6000830187612198565b612c9c6020830186612198565b612ca9604083018561222e565b8181036060830152612cbb8184612c41565b905095945050505050565b600081519050612cd581611fc2565b92915050565b600060208284031215612cf157612cf0611f8c565b5b6000612cff84828501612cc6565b91505092915050565b6000604082019050612d1d6000830185612198565b612d2a602083018461222e565b9392505050565b7f4e487b7100000000000000000000000000000000000000000000000000000000600052601260045260246000fdfea264697066735822122074fc3cc0adc9dbd58c10bbc3618b57e13a8151c696ad5c4a9314961f6a6f08bd64736f6c634300081a0033",
  "linkReferences": {},
  "deployedLinkReferences": {}
}